{
  "contractName": "LendingGroup",
  "abi": [
    {
      "inputs": [
        {
          "name": "_name",
          "type": "string"
        },
        {
          "name": "_owner",
          "type": "address"
        }
      ],
      "payable": false,
      "stateMutability": "nonpayable",
      "type": "constructor"
    },
    {
      "anonymous": false,
      "inputs": [
        {
          "indexed": false,
          "name": "amountRequested",
          "type": "uint256"
        }
      ],
      "name": "newRequest",
      "type": "event"
    },
    {
      "constant": true,
      "inputs": [
        {
          "name": "member",
          "type": "address"
        }
      ],
      "name": "getRequest",
      "outputs": [
        {
          "name": "",
          "type": "uint256"
        },
        {
          "name": "",
          "type": "uint256"
        }
      ],
      "payable": false,
      "stateMutability": "view",
      "type": "function"
    },
    {
      "constant": false,
      "inputs": [
        {
          "name": "_memberAddress",
          "type": "address"
        },
        {
          "name": "_name",
          "type": "string"
        }
      ],
      "name": "addMember",
      "outputs": [],
      "payable": false,
      "stateMutability": "nonpayable",
      "type": "function"
    },
    {
      "constant": false,
      "inputs": [
        {
          "name": "amount",
          "type": "uint256"
        }
      ],
      "name": "requestMoney",
      "outputs": [],
      "payable": false,
      "stateMutability": "nonpayable",
      "type": "function"
    },
    {
      "constant": false,
      "inputs": [
        {
          "name": "member",
          "type": "address"
        }
      ],
      "name": "giveMoney",
      "outputs": [],
      "payable": true,
      "stateMutability": "payable",
      "type": "function"
    }
  ],
  "bytecode": "0x608060405234801561001057600080fd5b50604051610a28380380610a288339810180604052604081101561003357600080fd5b81019080805164010000000081111561004b57600080fd5b8281019050602081018481111561006157600080fd5b815185600182028301116401000000008211171561007e57600080fd5b50509291906020018051906020019092919050505081600090805190602001906100a99291906100f2565b5080600160006101000a81548173ffffffffffffffffffffffffffffffffffffffff021916908373ffffffffffffffffffffffffffffffffffffffff1602179055505050610197565b828054600181600116156101000203166002900490600052602060002090601f016020900481019282601f1061013357805160ff1916838001178555610161565b82800160010185558215610161579182015b82811115610160578251825591602001919060010190610145565b5b50905061016e9190610172565b5090565b61019491905b80821115610190576000816000905550600101610178565b5090565b90565b610882806101a66000396000f3fe60806040526004361061003f5760003560e01c806331fd1b961461004457806363c1dff714610088578063c127c247146100f4578063e2b82011146101dc575b600080fd5b6100866004803603602081101561005a57600080fd5b81019080803573ffffffffffffffffffffffffffffffffffffffff169060200190929190505050610217565b005b34801561009457600080fd5b506100d7600480360360208110156100ab57600080fd5b81019080803573ffffffffffffffffffffffffffffffffffffffff16906020019092919050505061035c565b604051808381526020018281526020019250505060405180910390f35b34801561010057600080fd5b506101da6004803603604081101561011757600080fd5b81019080803573ffffffffffffffffffffffffffffffffffffffff1690602001909291908035906020019064010000000081111561015457600080fd5b82018360208201111561016657600080fd5b8035906020019184600183028401116401000000008311171561018857600080fd5b91908080601f016020809104026020016040519081016040528093929190818152602001838380828437600081840152601f19601f8201169050808301925050505050505091929192905050506103db565b005b3480156101e857600080fd5b50610215600480360360208110156101ff57600080fd5b8101908080359060200190929190505050610531565b005b6000819050600033905034600460008573ffffffffffffffffffffffffffffffffffffffff1673ffffffffffffffffffffffffffffffffffffffff1681526020019081526020016000206001016000828254019250508190555034600360003373ffffffffffffffffffffffffffffffffffffffff1673ffffffffffffffffffffffffffffffffffffffff16815260200190815260200160002060010160008282540192505081905550600460008473ffffffffffffffffffffffffffffffffffffffff1673ffffffffffffffffffffffffffffffffffffffff16815260200190815260200160002060000154600460008573ffffffffffffffffffffffffffffffffffffffff1673ffffffffffffffffffffffffffffffffffffffff168152602001908152602001600020600101541061035757610356828261065c565b5b505050565b600080610367610797565b600460008573ffffffffffffffffffffffffffffffffffffffff1673ffffffffffffffffffffffffffffffffffffffff168152602001908152602001600020604051806040016040529081600082015481526020016001820154815250509050806000015181602001519250925050915091565b60028290806001815401808255809150509060018203906000526020600020016000909192909190916101000a81548173ffffffffffffffffffffffffffffffffffffffff021916908373ffffffffffffffffffffffffffffffffffffffff1602179055505060405180604001604052808281526020016000815250600360008473ffffffffffffffffffffffffffffffffffffffff1673ffffffffffffffffffffffffffffffffffffffff16815260200190815260200160002060008201518160000190805190602001906104b29291906107b1565b50602082015181600101559050506040518060400160405280600081526020016000815250600460008473ffffffffffffffffffffffffffffffffffffffff1673ffffffffffffffffffffffffffffffffffffffff16815260200190815260200160002060008201518160000155602082015181600101559050505050565b6000600460003373ffffffffffffffffffffffffffffffffffffffff1673ffffffffffffffffffffffffffffffffffffffff16815260200190815260200160002060000154146105e9576040517f08c379a00000000000000000000000000000000000000000000000000000000081526004018080602001828103825260208152602001807f596f75206861766520616c726561647920726571756573746564206d6f6e657981525060200191505060405180910390fd5b60405180604001604052806103e8830281526020016000815250600460003373ffffffffffffffffffffffffffffffffffffffff1673ffffffffffffffffffffffffffffffffffffffff168152602001908152602001600020600082015181600001556020820151816001015590505050565b610664610797565b600460008473ffffffffffffffffffffffffffffffffffffffff1673ffffffffffffffffffffffffffffffffffffffff1681526020019081526020016000206040518060400160405290816000820154815260200160018201548152505090508060000151816020015111156106e9576106e88282600001518360200151036106fc565b5b6106f78382600001516106fc565b505050565b80600360008473ffffffffffffffffffffffffffffffffffffffff1673ffffffffffffffffffffffffffffffffffffffff168152602001908152602001600020600101600082825403925050819055508173ffffffffffffffffffffffffffffffffffffffff166108fc829081150290604051600060405180830381858888f19350505050158015610792573d6000803e3d6000fd5b505050565b604051806040016040528060008152602001600081525090565b828054600181600116156101000203166002900490600052602060002090601f016020900481019282601f106107f257805160ff1916838001178555610820565b82800160010185558215610820579182015b8281111561081f578251825591602001919060010190610804565b5b50905061082d9190610831565b5090565b61085391905b8082111561084f576000816000905550600101610837565b5090565b9056fea165627a7a723058206de910fc0e6137ce5fdd463595a92b80371b21d7df7d689bddf88945146abeb00029",
  "source": "pragma solidity >=0.5.0;\r\n\r\n\r\ncontract LendingGroup {\r\n\r\n  struct Request {\r\n    uint requested;\r\n    uint totalFulfilled;\r\n  }\r\n\r\n  struct Member {\r\n    string name;\r\n    int balance;\r\n  }\r\n\r\n  string name;\r\n  address owner;\r\n  address[] memberAddress;\r\n  mapping (address => Member) members;\r\n  mapping (address => Request) requests;\r\n\r\n  event newRequest (\r\n    uint amountRequested\r\n  );\r\n\r\n  constructor(string memory _name, address _owner) public {\r\n    name = _name;\r\n    owner = _owner;\r\n  }\r\n\r\n  function getRequest(address member) public view returns (uint256, uint256) {\r\n      Request memory request = requests[member];\r\n      return (request.requested, request.totalFulfilled);\r\n  }\r\n\r\n  function addMember (address _memberAddress, string memory _name) public {\r\n    memberAddress.push(_memberAddress);\r\n    members[_memberAddress] = Member(_name, 0);\r\n    requests[_memberAddress] = Request(0, 0);\r\n  }\r\n\r\n  function requestMoney (uint amount) public {\r\n    require (requests[msg.sender].requested == 0,\r\n     \"You have already requested money\");\r\n    requests[msg.sender] = Request(amount * 1000, 0);\r\n  }\r\n\r\n  function giveMoney (address member) public payable {\r\n    address payable memberPayable = address (uint160(member));\r\n    address payable payee = address (uint160(msg.sender));\r\n    requests[member].totalFulfilled += msg.value;\r\n    members[msg.sender].balance += int256(msg.value);\r\n\r\n    if (requests[member].totalFulfilled >= requests[member].requested) {\r\n      payOut(memberPayable, payee);\r\n    }\r\n  }\r\n\r\n  function payOut (address payable payee,\r\n  address payable payer) private {\r\n    Request memory request = requests[payee];\r\n    if (request.totalFulfilled > request.requested) {\r\n      pay(payer, request.totalFulfilled - request.requested);\r\n    }\r\n    pay(payee, request.requested);\r\n  }\r\n\r\n  function pay(address payable receiver, uint256 amt) private {\r\n    members[receiver].balance -= int256(amt);\r\n    receiver.transfer(amt);\r\n  }  \r\n}\r\n",
  "sourcePath": "C:\\Users\\dylma\\Documents\\csProjects\\decentralend\\contracts\\contracts\\LendingGroup.sol",
  "compiler": {
    "name": "solc",
    "version": "0.5.8+commit.23d335f2.Emscripten.clang"
  },
  "schemaVersion": "3.0.16",
  "updatedAt": "2020-02-29T18:03:29.585Z",
  "devdoc": {
    "methods": {}
  },
  "userdoc": {
    "methods": {}
  }
}