{
  "contractName": "LendingGroup",
  "abi": [
    {
      "inputs": [
        {
          "internalType": "string",
          "name": "_name",
          "type": "string"
        },
        {
          "internalType": "address",
          "name": "_owner",
          "type": "address"
        }
      ],
      "payable": false,
      "stateMutability": "nonpayable",
      "type": "constructor"
    },
    {
      "anonymous": false,
      "inputs": [
        {
          "indexed": false,
          "internalType": "uint256",
          "name": "amountRequested",
          "type": "uint256"
        }
      ],
      "name": "newRequest",
      "type": "event"
    },
    {
      "constant": true,
      "inputs": [
        {
          "internalType": "address",
          "name": "member",
          "type": "address"
        }
      ],
      "name": "getRequest",
      "outputs": [
        {
          "internalType": "uint256",
          "name": "",
          "type": "uint256"
        },
        {
          "internalType": "uint256",
          "name": "",
          "type": "uint256"
        }
      ],
      "payable": false,
      "stateMutability": "view",
      "type": "function"
    },
    {
      "constant": false,
      "inputs": [
        {
          "internalType": "address",
          "name": "_memberAddress",
          "type": "address"
        },
        {
          "internalType": "string",
          "name": "_name",
          "type": "string"
        },
        {
          "internalType": "string",
          "name": "phoneNumber",
          "type": "string"
        },
        {
          "internalType": "string",
          "name": "physAddress",
          "type": "string"
        }
      ],
      "name": "addMember",
      "outputs": [],
      "payable": false,
      "stateMutability": "nonpayable",
      "type": "function"
    },
    {
      "constant": false,
      "inputs": [
        {
          "internalType": "uint256",
          "name": "amount",
          "type": "uint256"
        }
      ],
      "name": "requestMoney",
      "outputs": [],
      "payable": false,
      "stateMutability": "nonpayable",
      "type": "function"
    },
    {
      "constant": false,
      "inputs": [
        {
          "internalType": "address",
          "name": "member",
          "type": "address"
        }
      ],
      "name": "giveMoney",
      "outputs": [],
      "payable": true,
      "stateMutability": "payable",
      "type": "function"
    }
  ],
  "bytecode": "0x608060405234801561001057600080fd5b50604051610b79380380610b798339818101604052604081101561003357600080fd5b810190808051604051939291908464010000000082111561005357600080fd5b8382019150602082018581111561006957600080fd5b825186600182028301116401000000008211171561008657600080fd5b8083526020830192505050908051906020019080838360005b838110156100ba57808201518184015260208101905061009f565b50505050905090810190601f1680156100e75780820380516001836020036101000a031916815260200191505b5060405260200180519060200190929190505050816000908051906020019061011192919061015a565b5080600160006101000a81548173ffffffffffffffffffffffffffffffffffffffff021916908373ffffffffffffffffffffffffffffffffffffffff16021790555050506101ff565b828054600181600116156101000203166002900490600052602060002090601f016020900481019282601f1061019b57805160ff19168380011785556101c9565b828001600101855582156101c9579182015b828111156101c85782518255916020019190600101906101ad565b5b5090506101d691906101da565b5090565b6101fc91905b808211156101f85760008160009055506001016101e0565b5090565b90565b61096b8061020e6000396000f3fe60806040526004361061003f5760003560e01c806331fd1b961461004457806363c1dff714610088578063769f2895146100f4578063e2b820111461030a575b600080fd5b6100866004803603602081101561005a57600080fd5b81019080803573ffffffffffffffffffffffffffffffffffffffff169060200190929190505050610345565b005b34801561009457600080fd5b506100d7600480360360208110156100ab57600080fd5b81019080803573ffffffffffffffffffffffffffffffffffffffff16906020019092919050505061048a565b604051808381526020018281526020019250505060405180910390f35b34801561010057600080fd5b506103086004803603608081101561011757600080fd5b81019080803573ffffffffffffffffffffffffffffffffffffffff1690602001909291908035906020019064010000000081111561015457600080fd5b82018360208201111561016657600080fd5b8035906020019184600183028401116401000000008311171561018857600080fd5b91908080601f016020809104026020016040519081016040528093929190818152602001838380828437600081840152601f19601f820116905080830192505050505050509192919290803590602001906401000000008111156101eb57600080fd5b8201836020820111156101fd57600080fd5b8035906020019184600183028401116401000000008311171561021f57600080fd5b91908080601f016020809104026020016040519081016040528093929190818152602001838380828437600081840152601f19601f8201169050808301925050505050505091929192908035906020019064010000000081111561028257600080fd5b82018360208201111561029457600080fd5b803590602001918460018302840111640100000000831117156102b657600080fd5b91908080601f016020809104026020016040519081016040528093929190818152602001838380828437600081840152601f19601f820116905080830192505050505050509192919290505050610509565b005b34801561031657600080fd5b506103436004803603602081101561032d57600080fd5b8101908080359060200190929190505050610661565b005b6000819050600033905034600460008573ffffffffffffffffffffffffffffffffffffffff1673ffffffffffffffffffffffffffffffffffffffff1681526020019081526020016000206001016000828254019250508190555034600360003373ffffffffffffffffffffffffffffffffffffffff1673ffffffffffffffffffffffffffffffffffffffff16815260200190815260200160002060010160008282540192505081905550600460008473ffffffffffffffffffffffffffffffffffffffff1673ffffffffffffffffffffffffffffffffffffffff16815260200190815260200160002060000154600460008573ffffffffffffffffffffffffffffffffffffffff1673ffffffffffffffffffffffffffffffffffffffff168152602001908152602001600020600101541061048557610484828261078c565b5b505050565b600080610495610877565b600460008573ffffffffffffffffffffffffffffffffffffffff1673ffffffffffffffffffffffffffffffffffffffff168152602001908152602001600020604051806040016040529081600082015481526020016001820154815250509050806000015181602001519250925050915091565b60028490806001815401808255809150509060018203906000526020600020016000909192909190916101000a81548173ffffffffffffffffffffffffffffffffffffffff021916908373ffffffffffffffffffffffffffffffffffffffff1602179055505060405180604001604052808481526020016000815250600360008673ffffffffffffffffffffffffffffffffffffffff1673ffffffffffffffffffffffffffffffffffffffff16815260200190815260200160002060008201518160000190805190602001906105e0929190610891565b50602082015181600101559050506040518060400160405280600081526020016000815250600460008673ffffffffffffffffffffffffffffffffffffffff1673ffffffffffffffffffffffffffffffffffffffff168152602001908152602001600020600082015181600001556020820151816001015590505050505050565b6000600460003373ffffffffffffffffffffffffffffffffffffffff1673ffffffffffffffffffffffffffffffffffffffff1681526020019081526020016000206000015414610719576040517f08c379a00000000000000000000000000000000000000000000000000000000081526004018080602001828103825260208152602001807f596f75206861766520616c726561647920726571756573746564206d6f6e657981525060200191505060405180910390fd5b60405180604001604052806103e8830281526020016000815250600460003373ffffffffffffffffffffffffffffffffffffffff1673ffffffffffffffffffffffffffffffffffffffff168152602001908152602001600020600082015181600001556020820151816001015590505050565b610794610877565b600460008473ffffffffffffffffffffffffffffffffffffffff1673ffffffffffffffffffffffffffffffffffffffff1681526020019081526020016000206040518060400160405290816000820154815260200160018201548152505090508060000151816020015111156108195761081882826000015183602001510361082c565b5b61082783826000015161082c565b505050565b8173ffffffffffffffffffffffffffffffffffffffff166108fc829081150290604051600060405180830381858888f19350505050158015610872573d6000803e3d6000fd5b505050565b604051806040016040528060008152602001600081525090565b828054600181600116156101000203166002900490600052602060002090601f016020900481019282601f106108d257805160ff1916838001178555610900565b82800160010185558215610900579182015b828111156108ff5782518255916020019190600101906108e4565b5b50905061090d9190610911565b5090565b61093391905b8082111561092f576000816000905550600101610917565b5090565b9056fea265627a7a723158204228b34f521fd95a151cf6fd76fa8f95c09f03db383340bc41950b40d3d6b43364736f6c63430005100032",
  "source": "pragma solidity >=0.5.0;\r\n\r\n\r\ncontract LendingGroup {\r\n\r\n  struct Request {\r\n    uint requested;\r\n    uint totalFulfilled;\r\n  }\r\n\r\n  struct Member {\r\n    string name;\r\n    int balance;\r\n  }\r\n\r\n  string name;\r\n  address owner;\r\n  address[] memberAddress;\r\n  mapping (address => Member) members;\r\n  mapping (address => Request) requests;\r\n\r\n  event newRequest (\r\n    uint amountRequested\r\n  );\r\n\r\n  constructor(string memory _name, address _owner) public {\r\n    name = _name;\r\n    owner = _owner;\r\n  }\r\n\r\n  function getRequest(address member) public view returns (uint256, uint256) {\r\n      Request memory request = requests[member];\r\n      return (request.requested, request.totalFulfilled);\r\n  }\r\n\r\n  function addMember (address _memberAddress, string memory _name,\r\n                      string memory phoneNumber, string memory physAddress) public {\r\n    memberAddress.push(_memberAddress);\r\n    members[_memberAddress] = Member(_name, 0);\r\n    requests[_memberAddress] = Request(0, 0);\r\n  }\r\n\r\n  function requestMoney (uint amount) public {\r\n    require (requests[msg.sender].requested == 0,\r\n     \"You have already requested money\");\r\n    requests[msg.sender] = Request(amount * 1000, 0);\r\n  }\r\n\r\n  function giveMoney (address member) public payable {\r\n    address payable memberPayable = address (uint160(member));\r\n    address payable payee = address (uint160(msg.sender));\r\n    requests[member].totalFulfilled += msg.value;\r\n    members[msg.sender].balance += int256(msg.value);\r\n\r\n    if (requests[member].totalFulfilled >= requests[member].requested) {\r\n      payOut(memberPayable, payee);\r\n    }\r\n  }\r\n\r\n  function payOut (address payable payee,\r\n  address payable payer) private {\r\n    Request memory request = requests[payee];\r\n    if (request.totalFulfilled > request.requested) {\r\n      pay(payer, request.totalFulfilled - request.requested);\r\n    }\r\n    pay(payee, request.requested);\r\n  }\r\n\r\n  function pay(address payable receiver, uint256 amt) private {\r\n    receiver.transfer(amt);\r\n  }  \r\n}\r\n",
  "sourcePath": "C:\\Dev\\Decentralend\\Contracts\\contracts\\LendingGroup.sol",
  "compiler": {
    "name": "solc",
    "version": "0.5.16+commit.9c3226ce.Emscripten.clang"
  },
  "schemaVersion": "3.0.23",
  "updatedAt": "2020-02-29T17:54:29.047Z",
  "devdoc": {
    "methods": {}
  },
  "userdoc": {
    "methods": {}
  }
}